{
  "_format": "hh-sol-artifact-1",
  "contractName": "Hook",
  "sourceName": "contracts/Hook.sol",
  "abi": [
    {
      "inputs": [
        {
          "internalType": "address",
          "name": "_nft",
          "type": "address"
        },
        {
          "internalType": "address",
          "name": "_usdc",
          "type": "address"
        }
      ],
      "stateMutability": "nonpayable",
      "type": "constructor"
    },
    {
      "inputs": [],
      "name": "NumberBelowThreshold",
      "type": "error"
    },
    {
      "inputs": [
        {
          "internalType": "address",
          "name": "owner",
          "type": "address"
        }
      ],
      "name": "OwnableInvalidOwner",
      "type": "error"
    },
    {
      "inputs": [
        {
          "internalType": "address",
          "name": "account",
          "type": "address"
        }
      ],
      "name": "OwnableUnauthorizedAccount",
      "type": "error"
    },
    {
      "inputs": [],
      "name": "ReentrancyGuardReentrantCall",
      "type": "error"
    },
    {
      "inputs": [],
      "name": "UnauthorizedAttester",
      "type": "error"
    },
    {
      "inputs": [],
      "name": "UnsupportedOperation",
      "type": "error"
    },
    {
      "anonymous": false,
      "inputs": [
        {
          "indexed": true,
          "internalType": "address",
          "name": "user",
          "type": "address"
        },
        {
          "indexed": false,
          "internalType": "uint256",
          "name": "projectId",
          "type": "uint256"
        },
        {
          "indexed": false,
          "internalType": "uint256",
          "name": "amount",
          "type": "uint256"
        }
      ],
      "name": "Deposit",
      "type": "event"
    },
    {
      "anonymous": false,
      "inputs": [
        {
          "indexed": true,
          "internalType": "uint256",
          "name": "projectId",
          "type": "uint256"
        },
        {
          "indexed": true,
          "internalType": "uint256",
          "name": "jobId",
          "type": "uint256"
        },
        {
          "indexed": false,
          "internalType": "string",
          "name": "name",
          "type": "string"
        },
        {
          "indexed": false,
          "internalType": "string",
          "name": "description",
          "type": "string"
        },
        {
          "indexed": false,
          "internalType": "uint256",
          "name": "amount",
          "type": "uint256"
        },
        {
          "indexed": false,
          "internalType": "string",
          "name": "metadata",
          "type": "string"
        },
        {
          "indexed": false,
          "internalType": "address",
          "name": "minter",
          "type": "address"
        }
      ],
      "name": "JobCreated",
      "type": "event"
    },
    {
      "anonymous": false,
      "inputs": [
        {
          "indexed": true,
          "internalType": "address",
          "name": "previousOwner",
          "type": "address"
        },
        {
          "indexed": true,
          "internalType": "address",
          "name": "newOwner",
          "type": "address"
        }
      ],
      "name": "OwnershipTransferred",
      "type": "event"
    },
    {
      "anonymous": false,
      "inputs": [
        {
          "indexed": true,
          "internalType": "uint256",
          "name": "projectId",
          "type": "uint256"
        },
        {
          "indexed": false,
          "internalType": "uint256",
          "name": "amount",
          "type": "uint256"
        }
      ],
      "name": "ProjectCreated",
      "type": "event"
    },
    {
      "anonymous": false,
      "inputs": [
        {
          "indexed": true,
          "internalType": "uint256",
          "name": "projectId",
          "type": "uint256"
        },
        {
          "indexed": false,
          "internalType": "uint256",
          "name": "amount",
          "type": "uint256"
        }
      ],
      "name": "ProjectTerminated",
      "type": "event"
    },
    {
      "anonymous": false,
      "inputs": [
        {
          "indexed": true,
          "internalType": "address",
          "name": "user",
          "type": "address"
        },
        {
          "indexed": false,
          "internalType": "uint256",
          "name": "projectId",
          "type": "uint256"
        },
        {
          "indexed": false,
          "internalType": "uint256",
          "name": "amount",
          "type": "uint256"
        },
        {
          "indexed": false,
          "internalType": "string",
          "name": "reason",
          "type": "string"
        }
      ],
      "name": "Withdrawn",
      "type": "event"
    },
    {
      "inputs": [
        {
          "internalType": "uint256",
          "name": "projectId",
          "type": "uint256"
        },
        {
          "internalType": "uint256",
          "name": "jobId",
          "type": "uint256"
        }
      ],
      "name": "_finalizeJob",
      "outputs": [],
      "stateMutability": "nonpayable",
      "type": "function"
    },
    {
      "inputs": [
        {
          "internalType": "uint256",
          "name": "",
          "type": "uint256"
        },
        {
          "internalType": "uint256",
          "name": "",
          "type": "uint256"
        }
      ],
      "name": "attestationCount",
      "outputs": [
        {
          "internalType": "uint256",
          "name": "",
          "type": "uint256"
        }
      ],
      "stateMutability": "view",
      "type": "function"
    },
    {
      "inputs": [
        {
          "internalType": "uint256",
          "name": "_projectId",
          "type": "uint256"
        },
        {
          "internalType": "string",
          "name": "_jobName",
          "type": "string"
        },
        {
          "internalType": "string",
          "name": "_jobDescription",
          "type": "string"
        },
        {
          "internalType": "uint256",
          "name": "_jobAmount",
          "type": "uint256"
        },
        {
          "internalType": "string",
          "name": "_jobMetadata",
          "type": "string"
        }
      ],
      "name": "createJob",
      "outputs": [],
      "stateMutability": "nonpayable",
      "type": "function"
    },
    {
      "inputs": [
        {
          "internalType": "string",
          "name": "_description",
          "type": "string"
        },
        {
          "internalType": "uint256",
          "name": "_amount",
          "type": "uint256"
        }
      ],
      "name": "createProject",
      "outputs": [],
      "stateMutability": "nonpayable",
      "type": "function"
    },
    {
      "inputs": [],
      "name": "debugMessage",
      "outputs": [
        {
          "internalType": "string",
          "name": "",
          "type": "string"
        }
      ],
      "stateMutability": "view",
      "type": "function"
    },
    {
      "inputs": [
        {
          "internalType": "uint256",
          "name": "projectId",
          "type": "uint256"
        },
        {
          "internalType": "uint256",
          "name": "amount",
          "type": "uint256"
        }
      ],
      "name": "deposit",
      "outputs": [],
      "stateMutability": "payable",
      "type": "function"
    },
    {
      "inputs": [
        {
          "internalType": "address",
          "name": "attester",
          "type": "address"
        },
        {
          "internalType": "uint64",
          "name": "",
          "type": "uint64"
        },
        {
          "internalType": "uint64",
          "name": "attestationId",
          "type": "uint64"
        },
        {
          "internalType": "bytes",
          "name": "",
          "type": "bytes"
        }
      ],
      "name": "didReceiveAttestation",
      "outputs": [],
      "stateMutability": "payable",
      "type": "function"
    },
    {
      "inputs": [
        {
          "internalType": "address",
          "name": "",
          "type": "address"
        },
        {
          "internalType": "uint64",
          "name": "",
          "type": "uint64"
        },
        {
          "internalType": "uint64",
          "name": "",
          "type": "uint64"
        },
        {
          "internalType": "contract IERC20",
          "name": "",
          "type": "address"
        },
        {
          "internalType": "uint256",
          "name": "",
          "type": "uint256"
        },
        {
          "internalType": "bytes",
          "name": "",
          "type": "bytes"
        }
      ],
      "name": "didReceiveAttestation",
      "outputs": [],
      "stateMutability": "pure",
      "type": "function"
    },
    {
      "inputs": [
        {
          "internalType": "address",
          "name": "",
          "type": "address"
        },
        {
          "internalType": "uint64",
          "name": "",
          "type": "uint64"
        },
        {
          "internalType": "uint64",
          "name": "",
          "type": "uint64"
        },
        {
          "internalType": "bytes",
          "name": "",
          "type": "bytes"
        }
      ],
      "name": "didReceiveRevocation",
      "outputs": [],
      "stateMutability": "payable",
      "type": "function"
    },
    {
      "inputs": [
        {
          "internalType": "address",
          "name": "",
          "type": "address"
        },
        {
          "internalType": "uint64",
          "name": "",
          "type": "uint64"
        },
        {
          "internalType": "uint64",
          "name": "",
          "type": "uint64"
        },
        {
          "internalType": "contract IERC20",
          "name": "",
          "type": "address"
        },
        {
          "internalType": "uint256",
          "name": "",
          "type": "uint256"
        },
        {
          "internalType": "bytes",
          "name": "",
          "type": "bytes"
        }
      ],
      "name": "didReceiveRevocation",
      "outputs": [],
      "stateMutability": "pure",
      "type": "function"
    },
    {
      "inputs": [
        {
          "internalType": "uint256",
          "name": "projectId",
          "type": "uint256"
        },
        {
          "internalType": "uint256",
          "name": "amount",
          "type": "uint256"
        },
        {
          "internalType": "string",
          "name": "reason",
          "type": "string"
        }
      ],
      "name": "emergencyWithdraw",
      "outputs": [],
      "stateMutability": "nonpayable",
      "type": "function"
    },
    {
      "inputs": [
        {
          "internalType": "uint256",
          "name": "_projectId",
          "type": "uint256"
        },
        {
          "internalType": "uint256",
          "name": "_jobId",
          "type": "uint256"
        }
      ],
      "name": "getJob",
      "outputs": [
        {
          "internalType": "uint256",
          "name": "",
          "type": "uint256"
        },
        {
          "internalType": "string",
          "name": "",
          "type": "string"
        },
        {
          "internalType": "string",
          "name": "",
          "type": "string"
        },
        {
          "internalType": "uint256",
          "name": "",
          "type": "uint256"
        },
        {
          "internalType": "string",
          "name": "",
          "type": "string"
        }
      ],
      "stateMutability": "view",
      "type": "function"
    },
    {
      "inputs": [
        {
          "internalType": "uint256",
          "name": "_projectId",
          "type": "uint256"
        }
      ],
      "name": "getProject",
      "outputs": [
        {
          "internalType": "uint256",
          "name": "",
          "type": "uint256"
        },
        {
          "internalType": "string",
          "name": "",
          "type": "string"
        },
        {
          "internalType": "string",
          "name": "",
          "type": "string"
        },
        {
          "internalType": "uint256",
          "name": "",
          "type": "uint256"
        },
        {
          "components": [
            {
              "internalType": "uint256",
              "name": "jobId",
              "type": "uint256"
            },
            {
              "internalType": "string",
              "name": "name",
              "type": "string"
            },
            {
              "internalType": "string",
              "name": "description",
              "type": "string"
            },
            {
              "internalType": "uint256",
              "name": "amount",
              "type": "uint256"
            },
            {
              "internalType": "string",
              "name": "metadata",
              "type": "string"
            },
            {
              "internalType": "address",
              "name": "minter",
              "type": "address"
            }
          ],
          "internalType": "struct Hook.Job[]",
          "name": "",
          "type": "tuple[]"
        }
      ],
      "stateMutability": "view",
      "type": "function"
    },
    {
      "inputs": [
        {
          "internalType": "uint256",
          "name": "",
          "type": "uint256"
        },
        {
          "internalType": "uint256",
          "name": "",
          "type": "uint256"
        },
        {
          "internalType": "address",
          "name": "",
          "type": "address"
        }
      ],
      "name": "hasAttested",
      "outputs": [
        {
          "internalType": "uint64",
          "name": "",
          "type": "uint64"
        }
      ],
      "stateMutability": "view",
      "type": "function"
    },
    {
      "inputs": [
        {
          "internalType": "uint256",
          "name": "",
          "type": "uint256"
        }
      ],
      "name": "nextJobId",
      "outputs": [
        {
          "internalType": "uint256",
          "name": "",
          "type": "uint256"
        }
      ],
      "stateMutability": "view",
      "type": "function"
    },
    {
      "inputs": [],
      "name": "nextProjectId",
      "outputs": [
        {
          "internalType": "uint256",
          "name": "",
          "type": "uint256"
        }
      ],
      "stateMutability": "view",
      "type": "function"
    },
    {
      "inputs": [],
      "name": "nft",
      "outputs": [
        {
          "internalType": "address",
          "name": "",
          "type": "address"
        }
      ],
      "stateMutability": "view",
      "type": "function"
    },
    {
      "inputs": [],
      "name": "owner",
      "outputs": [
        {
          "internalType": "address",
          "name": "",
          "type": "address"
        }
      ],
      "stateMutability": "view",
      "type": "function"
    },
    {
      "inputs": [
        {
          "internalType": "uint256",
          "name": "",
          "type": "uint256"
        }
      ],
      "name": "projects",
      "outputs": [
        {
          "internalType": "uint256",
          "name": "projectId",
          "type": "uint256"
        },
        {
          "internalType": "string",
          "name": "name",
          "type": "string"
        },
        {
          "internalType": "string",
          "name": "description",
          "type": "string"
        },
        {
          "internalType": "uint256",
          "name": "amount",
          "type": "uint256"
        },
        {
          "internalType": "uint8",
          "name": "action",
          "type": "uint8"
        }
      ],
      "stateMutability": "view",
      "type": "function"
    },
    {
      "inputs": [],
      "name": "renounceOwnership",
      "outputs": [],
      "stateMutability": "nonpayable",
      "type": "function"
    },
    {
      "inputs": [
        {
          "internalType": "uint256",
          "name": "_threshold",
          "type": "uint256"
        }
      ],
      "name": "setThreshold",
      "outputs": [],
      "stateMutability": "nonpayable",
      "type": "function"
    },
    {
      "inputs": [
        {
          "internalType": "address",
          "name": "attester",
          "type": "address"
        },
        {
          "internalType": "bool",
          "name": "allowed",
          "type": "bool"
        }
      ],
      "name": "setWhitelist",
      "outputs": [],
      "stateMutability": "nonpayable",
      "type": "function"
    },
    {
      "inputs": [
        {
          "internalType": "uint256",
          "name": "projectId",
          "type": "uint256"
        }
      ],
      "name": "terminateProject",
      "outputs": [],
      "stateMutability": "nonpayable",
      "type": "function"
    },
    {
      "inputs": [],
      "name": "threshold",
      "outputs": [
        {
          "internalType": "uint256",
          "name": "",
          "type": "uint256"
        }
      ],
      "stateMutability": "view",
      "type": "function"
    },
    {
      "inputs": [
        {
          "internalType": "address",
          "name": "newOwner",
          "type": "address"
        }
      ],
      "name": "transferOwnership",
      "outputs": [],
      "stateMutability": "nonpayable",
      "type": "function"
    },
    {
      "inputs": [],
      "name": "usdc",
      "outputs": [
        {
          "internalType": "address",
          "name": "",
          "type": "address"
        }
      ],
      "stateMutability": "view",
      "type": "function"
    },
    {
      "inputs": [
        {
          "internalType": "address",
          "name": "attester",
          "type": "address"
        }
      ],
      "name": "whitelist",
      "outputs": [
        {
          "internalType": "bool",
          "name": "allowed",
          "type": "bool"
        }
      ],
      "stateMutability": "view",
      "type": "function"
    }
  ],
  "bytecode": "0x6080604052600260095534801561001557600080fd5b50604051613d4b380380613d4b83398181016040528101906100379190610272565b33600073ffffffffffffffffffffffffffffffffffffffff168173ffffffffffffffffffffffffffffffffffffffff16036100aa5760006040517f1e4fbdf70000000000000000000000000000000000000000000000000000000081526004016100a191906102c1565b60405180910390fd5b6100b98161014b60201b60201c565b50600160028190555081600460006101000a81548173ffffffffffffffffffffffffffffffffffffffff021916908373ffffffffffffffffffffffffffffffffffffffff16021790555080600360006101000a81548173ffffffffffffffffffffffffffffffffffffffff021916908373ffffffffffffffffffffffffffffffffffffffff16021790555050506102dc565b60008060009054906101000a900473ffffffffffffffffffffffffffffffffffffffff169050816000806101000a81548173ffffffffffffffffffffffffffffffffffffffff021916908373ffffffffffffffffffffffffffffffffffffffff1602179055508173ffffffffffffffffffffffffffffffffffffffff168173ffffffffffffffffffffffffffffffffffffffff167f8be0079c531659141344cd1fd0a4f28419497f9722a3daafe3b4186f6b6457e060405160405180910390a35050565b600080fd5b600073ffffffffffffffffffffffffffffffffffffffff82169050919050565b600061023f82610214565b9050919050565b61024f81610234565b811461025a57600080fd5b50565b60008151905061026c81610246565b92915050565b600080604083850312156102895761028861020f565b5b60006102978582860161025d565b92505060206102a88582860161025d565b9150509250929050565b6102bb81610234565b82525050565b60006020820190506102d660008301846102b2565b92915050565b613a60806102eb6000396000f3fe60806040526004361061019c5760003560e01c806353d6fd59116100ec578063d1bfd6961161008a578063e830b5c711610064578063e830b5c7146105a1578063e935b7b1146105ca578063f0f3f2c8146105f5578063f2fde38b146106365761019c565b8063d1bfd6961461052c578063e2bbb15814610569578063e33361f4146105855761019c565b806391754a5d116100c657806391754a5d14610472578063960bfe041461049b5780639b19251a146104c4578063c6c049ea146105015761019c565b806353d6fd5914610407578063715018a6146104305780638da5cb5b146104475761019c565b80633e413bee116101595780634466507a116101335780634466507a1461034d57806347ccca02146103765780634d7168af146103a15780634fc13d22146103ca5761019c565b80633e413bee146102ce5780633ee658aa146102f957806342cde4e8146103225761019c565b8063047fd2d3146101a1578063107046bd146101de57806318cabf041461021f57806319098166146102485780631a4bda61146102895780633398b4ed146102b2575b600080fd5b3480156101ad57600080fd5b506101c860048036038101906101c39190612337565b61065f565b6040516101d59190612386565b60405180910390f35b3480156101ea57600080fd5b50610205600480360381019061020091906123a1565b610684565b60405161021695949392919061247a565b60405180910390f35b34801561022b57600080fd5b5061024660048036038101906102419190612337565b6107d7565b005b34801561025457600080fd5b5061026f600480360381019061026a9190612337565b610c15565b6040516102809594939291906124db565b60405180910390f35b34801561029557600080fd5b506102b060048036038101906102ab9190612678565b610eba565b005b6102cc60048036038101906102c79190612845565b6110bc565b005b3480156102da57600080fd5b506102e3611342565b6040516102f091906128dc565b60405180910390f35b34801561030557600080fd5b50610320600480360381019061031b91906123a1565b611368565b005b34801561032e57600080fd5b506103376114ce565b6040516103449190612386565b60405180910390f35b34801561035957600080fd5b50610374600480360381019061036f9190612935565b6114d4565b005b34801561038257600080fd5b5061038b611506565b60405161039891906128dc565b60405180910390f35b3480156103ad57600080fd5b506103c860048036038101906103c39190612a3a565b61152c565b005b3480156103d657600080fd5b506103f160048036038101906103ec91906123a1565b61162f565b6040516103fe9190612386565b60405180910390f35b34801561041357600080fd5b5061042e60048036038101906104299190612ae6565b611647565b005b34801561043c57600080fd5b506104456116aa565b005b34801561045357600080fd5b5061045c6116be565b60405161046991906128dc565b60405180910390f35b34801561047e57600080fd5b5061049960048036038101906104949190612b26565b6116e7565b005b3480156104a757600080fd5b506104c260048036038101906104bd91906123a1565b6119fc565b005b3480156104d057600080fd5b506104eb60048036038101906104e69190612b82565b611a0e565b6040516104f89190612bbe565b60405180910390f35b34801561050d57600080fd5b50610516611a2e565b6040516105239190612bd9565b60405180910390f35b34801561053857600080fd5b50610553600480360381019061054e9190612bfb565b611abc565b6040516105609190612c5d565b60405180910390f35b610583600480360381019061057e9190612337565b611aff565b005b61059f600480360381019061059a9190612845565b611bf6565b005b3480156105ad57600080fd5b506105c860048036038101906105c39190612935565b611c28565b005b3480156105d657600080fd5b506105df611c5a565b6040516105ec9190612386565b60405180910390f35b34801561060157600080fd5b5061061c600480360381019061061791906123a1565b611c60565b60405161062d959493929190612e39565b60405180910390f35b34801561064257600080fd5b5061065d60048036038101906106589190612b82565b61207f565b005b600b602052816000526040600020602052806000526040600020600091509150505481565b60056020528060005260406000206000915090508060000154908060010180546106ad90612ed0565b80601f01602080910402602001604051908101604052809291908181526020018280546106d990612ed0565b80156107265780601f106106fb57610100808354040283529160200191610726565b820191906000526020600020905b81548152906001019060200180831161070957829003601f168201915b50505050509080600201805461073b90612ed0565b80601f016020809104026020016040519081016040528092919081815260200182805461076790612ed0565b80156107b45780601f10610789576101008083540402835291602001916107b4565b820191906000526020600020905b81548152906001019060200180831161079757829003601f168201915b5050505050908060030154908060050160009054906101000a900460ff16905085565b6040518060400160405280600b81526020017f66696e616c697a654a6f62000000000000000000000000000000000000000000815250600a908161081b91906130ad565b506006548210610860576040517f08c379a0000000000000000000000000000000000000000000000000000000008152600401610857906131cb565b60405180910390fd5b6000600560008481526020019081526020016000209050806004018054905082106108c0576040517f08c379a00000000000000000000000000000000000000000000000000000000081526004016108b790613237565b60405180910390fd5b60008160040183815481106108d8576108d7613257565b5b906000526020600020906006020190506040518060400160405280601581526020017f66696e616c697a654a6f623a206d696e74204e46540000000000000000000000815250600a908161092c91906130ad565b50600082600401848154811061094557610944613257565b5b9060005260206000209060060201600401805461096190612ed0565b80601f016020809104026020016040519081016040528092919081815260200182805461098d90612ed0565b80156109da5780601f106109af576101008083540402835291602001916109da565b820191906000526020600020905b8154815290600101906020018083116109bd57829003601f168201915b50505050509050600460009054906101000a900473ffffffffffffffffffffffffffffffffffffffff1673ffffffffffffffffffffffffffffffffffffffff1663bb7fde718360050160009054906101000a900473ffffffffffffffffffffffffffffffffffffffff168787856040518563ffffffff1660e01b8152600401610a669493929190613286565b600060405180830381600087803b158015610a8057600080fd5b505af1158015610a94573d6000803e3d6000fd5b505050506040518060400160405280601a81526020017f66696e616c697a654a6f623a207472616e736665722055534443000000000000815250600a9081610adc91906130ad565b50600360009054906101000a900473ffffffffffffffffffffffffffffffffffffffff1673ffffffffffffffffffffffffffffffffffffffff1663a9059cbb846004018681548110610b3157610b30613257565b5b906000526020600020906006020160050160009054906101000a900473ffffffffffffffffffffffffffffffffffffffff1685600301546040518363ffffffff1660e01b8152600401610b859291906132d2565b6020604051808303816000875af1158015610ba4573d6000803e3d6000fd5b505050506040513d601f19601f82011682018060405250810190610bc89190613310565b506040518060400160405280601781526020017f66696e616c697a654a6f623a20656d6974206576656e74000000000000000000815250600a9081610c0d91906130ad565b505050505050565b6000606080600060606006548710610c62576040517f08c379a0000000000000000000000000000000000000000000000000000000008152600401610c59906131cb565b60405180910390fd5b600060056000898152602001908152602001600020905080600401805490508710610cc2576040517f08c379a0000000000000000000000000000000000000000000000000000000008152600401610cb990613237565b60405180910390fd5b6000816004018881548110610cda57610cd9613257565b5b9060005260206000209060060201905080600001548160010182600201836003015484600401838054610d0c90612ed0565b80601f0160208091040260200160405190810160405280929190818152602001828054610d3890612ed0565b8015610d855780601f10610d5a57610100808354040283529160200191610d85565b820191906000526020600020905b815481529060010190602001808311610d6857829003601f168201915b50505050509350828054610d9890612ed0565b80601f0160208091040260200160405190810160405280929190818152602001828054610dc490612ed0565b8015610e115780601f10610de657610100808354040283529160200191610e11565b820191906000526020600020905b815481529060010190602001808311610df457829003601f168201915b50505050509250808054610e2490612ed0565b80601f0160208091040260200160405190810160405280929190818152602001828054610e5090612ed0565b8015610e9d5780601f10610e7257610100808354040283529160200191610e9d565b820191906000526020600020905b815481529060010190602001808311610e8057829003601f168201915b505050505090509650965096509650965050509295509295909350565b6006548510610efe576040517f08c379a0000000000000000000000000000000000000000000000000000000008152600401610ef5906131cb565b60405180910390fd5b60006040518060c00160405280600760008981526020019081526020016000205481526020018681526020018581526020018481526020018381526020013373ffffffffffffffffffffffffffffffffffffffff16815250905060056000878152602001908152602001600020600401819080600181540180825580915050600190039060005260206000209060060201600090919091909150600082015181600001556020820151816001019081610fb791906130ad565b506040820151816002019081610fcd91906130ad565b50606082015181600301556080820151816004019081610fed91906130ad565b5060a08201518160050160006101000a81548173ffffffffffffffffffffffffffffffffffffffff021916908373ffffffffffffffffffffffffffffffffffffffff16021790555050506007600087815260200190815260200160002054867f81cb99e31e7608cd5a8e40ab6617a956882f9d481c39b7b79e025a292025c093878787873360405161108395949392919061333d565b60405180910390a36007600087815260200190815260200160002060008154809291906110af906133d4565b9190505550505050505050565b6110c585612105565b60006110cf61218b565b73ffffffffffffffffffffffffffffffffffffffff166362252880856040518263ffffffff1660e01b81526004016111079190612c5d565b600060405180830381865afa158015611124573d6000803e3d6000fd5b505050506040513d6000823e3d601f19601f8201168201806040525081019061114d9190613725565b905060008082610120015180602001905181019061116b9190613783565b9150915060006008600084815260200190815260200160002060008381526020019081526020016000206000856080015173ffffffffffffffffffffffffffffffffffffffff1673ffffffffffffffffffffffffffffffffffffffff16815260200190815260200160002060009054906101000a900467ffffffffffffffff1667ffffffffffffffff1614611235576040517f08c379a000000000000000000000000000000000000000000000000000000000815260040161122c9061380f565b60405180910390fd5b856008600084815260200190815260200160002060008381526020019081526020016000206000856080015173ffffffffffffffffffffffffffffffffffffffff1673ffffffffffffffffffffffffffffffffffffffff16815260200190815260200160002060006101000a81548167ffffffffffffffff021916908367ffffffffffffffff160217905550600b6000838152602001908152602001600020600082815260200190815260200160002060008154809291906112f6906133d4565b9190505550611328600b6000848152602001908152602001600020600083815260200190815260200160002054612193565b156113385761133782826107d7565b5b5050505050505050565b600360009054906101000a900473ffffffffffffffffffffffffffffffffffffffff1681565b6113706121a2565b60065481106113b4576040517f08c379a00000000000000000000000000000000000000000000000000000000081526004016113ab906131cb565b60405180910390fd5b600060056000838152602001908152602001600020905060008160050160006101000a81548160ff021916908360ff160217905550600360009054906101000a900473ffffffffffffffffffffffffffffffffffffffff1673ffffffffffffffffffffffffffffffffffffffff1663a9059cbb3383600301546040518363ffffffff1660e01b815260040161144a9291906132d2565b6020604051808303816000875af1158015611469573d6000803e3d6000fd5b505050506040513d601f19601f8201168201806040525081019061148d9190613310565b50817fc367b469155be85bcd28bb26ee3edb67ed24d2b1f4f081f22166e780f922f7a982600301546040516114c29190612386565b60405180910390a25050565b60095481565b6040517f9ba6061b00000000000000000000000000000000000000000000000000000000815260040160405180910390fd5b600460009054906101000a900473ffffffffffffffffffffffffffffffffffffffff1681565b6115346121a2565b600360009054906101000a900473ffffffffffffffffffffffffffffffffffffffff1673ffffffffffffffffffffffffffffffffffffffff1663a9059cbb33856040518363ffffffff1660e01b81526004016115919291906132d2565b6020604051808303816000875af11580156115b0573d6000803e3d6000fd5b505050506040513d601f19601f820116820180604052508101906115d49190613310565b503373ffffffffffffffffffffffffffffffffffffffff167f62116a798bb58cc967874bea4d771de2f9aeec6c64189ff2e5a551072f3106f985858585604051611621949392919061385c565b60405180910390a250505050565b60076020528060005260406000206000915090505481565b61164f6121a2565b80600160008473ffffffffffffffffffffffffffffffffffffffff1673ffffffffffffffffffffffffffffffffffffffff16815260200190815260200160002060006101000a81548160ff0219169083151502179055505050565b6116b26121a2565b6116bc6000612229565b565b60008060009054906101000a900473ffffffffffffffffffffffffffffffffffffffff16905090565b80600360009054906101000a900473ffffffffffffffffffffffffffffffffffffffff1673ffffffffffffffffffffffffffffffffffffffff166370a08231336040518263ffffffff1660e01b815260040161174391906128dc565b602060405180830381865afa158015611760573d6000803e3d6000fd5b505050506040513d601f19601f82011682018060405250810190611784919061389c565b10156117c5576040517f08c379a00000000000000000000000000000000000000000000000000000000081526004016117bc90613915565b60405180910390fd5b80600360009054906101000a900473ffffffffffffffffffffffffffffffffffffffff1673ffffffffffffffffffffffffffffffffffffffff1663dd62ed3e33306040518363ffffffff1660e01b8152600401611823929190613935565b602060405180830381865afa158015611840573d6000803e3d6000fd5b505050506040513d601f19601f82011682018060405250810190611864919061389c565b10156118a5576040517f08c379a000000000000000000000000000000000000000000000000000000000815260040161189c906139aa565b60405180910390fd5b600060056000600654815260200190815260200160002090506006548160000181905550828160020190816118da91906130ad565b5081816003018190555060018160050160006101000a81548160ff021916908360ff160217905550600360009054906101000a900473ffffffffffffffffffffffffffffffffffffffff1673ffffffffffffffffffffffffffffffffffffffff166323b872dd3330856040518463ffffffff1660e01b8152600401611961939291906139ca565b6020604051808303816000875af1158015611980573d6000803e3d6000fd5b505050506040513d601f19601f820116820180604052508101906119a49190613310565b506006547fa759694985087d1b45767e3d6caca9d4fd179a5f1d9d28c42e9fa616113e477a836040516119d79190612386565b60405180910390a2600660008154809291906119f2906133d4565b9190505550505050565b611a046121a2565b8060098190555050565b60016020528060005260406000206000915054906101000a900460ff1681565b600a8054611a3b90612ed0565b80601f0160208091040260200160405190810160405280929190818152602001828054611a6790612ed0565b8015611ab45780601f10611a8957610100808354040283529160200191611ab4565b820191906000526020600020905b815481529060010190602001808311611a9757829003601f168201915b505050505081565b6008602052826000526040600020602052816000526040600020602052806000526040600020600092509250509054906101000a900467ffffffffffffffff1681565b600360009054906101000a900473ffffffffffffffffffffffffffffffffffffffff1673ffffffffffffffffffffffffffffffffffffffff166323b872dd3330846040518463ffffffff1660e01b8152600401611b5e939291906139ca565b6020604051808303816000875af1158015611b7d573d6000803e3d6000fd5b505050506040513d601f19601f82011682018060405250810190611ba19190613310565b503373ffffffffffffffffffffffffffffffffffffffff167f90890809c654f11d6e72a28fa60149770a0d11ec6c92319d6ceb2bb0a4ea1a158383604051611bea929190613a01565b60405180910390a25050565b6040517f9ba6061b00000000000000000000000000000000000000000000000000000000815260040160405180910390fd5b6040517f9ba6061b00000000000000000000000000000000000000000000000000000000815260040160405180910390fd5b60065481565b6000606080600060606006548610611cad576040517f08c379a0000000000000000000000000000000000000000000000000000000008152600401611ca4906131cb565b60405180910390fd5b600060056000888152602001908152602001600020905080600001548160010182600201836003015484600401838054611ce690612ed0565b80601f0160208091040260200160405190810160405280929190818152602001828054611d1290612ed0565b8015611d5f5780601f10611d3457610100808354040283529160200191611d5f565b820191906000526020600020905b815481529060010190602001808311611d4257829003601f168201915b50505050509350828054611d7290612ed0565b80601f0160208091040260200160405190810160405280929190818152602001828054611d9e90612ed0565b8015611deb5780601f10611dc057610100808354040283529160200191611deb565b820191906000526020600020905b815481529060010190602001808311611dce57829003601f168201915b5050505050925080805480602002602001604051908101604052809291908181526020016000905b8282101561206557838290600052602060002090600602016040518060c001604052908160008201548152602001600182018054611e5090612ed0565b80601f0160208091040260200160405190810160405280929190818152602001828054611e7c90612ed0565b8015611ec95780601f10611e9e57610100808354040283529160200191611ec9565b820191906000526020600020905b815481529060010190602001808311611eac57829003601f168201915b50505050508152602001600282018054611ee290612ed0565b80601f0160208091040260200160405190810160405280929190818152602001828054611f0e90612ed0565b8015611f5b5780601f10611f3057610100808354040283529160200191611f5b565b820191906000526020600020905b815481529060010190602001808311611f3e57829003601f168201915b5050505050815260200160038201548152602001600482018054611f7e90612ed0565b80601f0160208091040260200160405190810160405280929190818152602001828054611faa90612ed0565b8015611ff75780601f10611fcc57610100808354040283529160200191611ff7565b820191906000526020600020905b815481529060010190602001808311611fda57829003601f168201915b505050505081526020016005820160009054906101000a900473ffffffffffffffffffffffffffffffffffffffff1673ffffffffffffffffffffffffffffffffffffffff1673ffffffffffffffffffffffffffffffffffffffff168152505081526020019060010190611e13565b505050509050955095509550955095505091939590929450565b6120876121a2565b600073ffffffffffffffffffffffffffffffffffffffff168173ffffffffffffffffffffffffffffffffffffffff16036120f95760006040517f1e4fbdf70000000000000000000000000000000000000000000000000000000081526004016120f091906128dc565b60405180910390fd5b61210281612229565b50565b600160008273ffffffffffffffffffffffffffffffffffffffff1673ffffffffffffffffffffffffffffffffffffffff16815260200190815260200160002060009054906101000a900460ff16612188576040517f87aee99200000000000000000000000000000000000000000000000000000000815260040160405180910390fd5b50565b600033905090565b60006009548210159050919050565b6121aa61218b565b73ffffffffffffffffffffffffffffffffffffffff166121c86116be565b73ffffffffffffffffffffffffffffffffffffffff1614612227576121eb61218b565b6040517f118cdaa700000000000000000000000000000000000000000000000000000000815260040161221e91906128dc565b60405180910390fd5b565b60008060009054906101000a900473ffffffffffffffffffffffffffffffffffffffff169050816000806101000a81548173ffffffffffffffffffffffffffffffffffffffff021916908373ffffffffffffffffffffffffffffffffffffffff1602179055508173ffffffffffffffffffffffffffffffffffffffff168173ffffffffffffffffffffffffffffffffffffffff167f8be0079c531659141344cd1fd0a4f28419497f9722a3daafe3b4186f6b6457e060405160405180910390a35050565b6000604051905090565b600080fd5b600080fd5b6000819050919050565b61231481612301565b811461231f57600080fd5b50565b6000813590506123318161230b565b92915050565b6000806040838503121561234e5761234d6122f7565b5b600061235c85828601612322565b925050602061236d85828601612322565b9150509250929050565b61238081612301565b82525050565b600060208201905061239b6000830184612377565b92915050565b6000602082840312156123b7576123b66122f7565b5b60006123c584828501612322565b91505092915050565b600081519050919050565b600082825260208201905092915050565b60005b838110156124085780820151818401526020810190506123ed565b60008484015250505050565b6000601f19601f8301169050919050565b6000612430826123ce565b61243a81856123d9565b935061244a8185602086016123ea565b61245381612414565b840191505092915050565b600060ff82169050919050565b6124748161245e565b82525050565b600060a08201905061248f6000830188612377565b81810360208301526124a18187612425565b905081810360408301526124b58186612425565b90506124c46060830185612377565b6124d1608083018461246b565b9695505050505050565b600060a0820190506124f06000830188612377565b81810360208301526125028187612425565b905081810360408301526125168186612425565b90506125256060830185612377565b81810360808301526125378184612425565b90509695505050505050565b600080fd5b600080fd5b7f4e487b7100000000000000000000000000000000000000000000000000000000600052604160045260246000fd5b61258582612414565b810181811067ffffffffffffffff821117156125a4576125a361254d565b5b80604052505050565b60006125b76122ed565b90506125c3828261257c565b919050565b600067ffffffffffffffff8211156125e3576125e261254d565b5b6125ec82612414565b9050602081019050919050565b82818337600083830152505050565b600061261b612616846125c8565b6125ad565b90508281526020810184848401111561263757612636612548565b5b6126428482856125f9565b509392505050565b600082601f83011261265f5761265e612543565b5b813561266f848260208601612608565b91505092915050565b600080600080600060a08688031215612694576126936122f7565b5b60006126a288828901612322565b955050602086013567ffffffffffffffff8111156126c3576126c26122fc565b5b6126cf8882890161264a565b945050604086013567ffffffffffffffff8111156126f0576126ef6122fc565b5b6126fc8882890161264a565b935050606061270d88828901612322565b925050608086013567ffffffffffffffff81111561272e5761272d6122fc565b5b61273a8882890161264a565b9150509295509295909350565b600073ffffffffffffffffffffffffffffffffffffffff82169050919050565b600061277282612747565b9050919050565b61278281612767565b811461278d57600080fd5b50565b60008135905061279f81612779565b92915050565b600067ffffffffffffffff82169050919050565b6127c2816127a5565b81146127cd57600080fd5b50565b6000813590506127df816127b9565b92915050565b600080fd5b600080fd5b60008083601f84011261280557612804612543565b5b8235905067ffffffffffffffff811115612822576128216127e5565b5b60208301915083600182028301111561283e5761283d6127ea565b5b9250929050565b600080600080600060808688031215612861576128606122f7565b5b600061286f88828901612790565b9550506020612880888289016127d0565b9450506040612891888289016127d0565b935050606086013567ffffffffffffffff8111156128b2576128b16122fc565b5b6128be888289016127ef565b92509250509295509295909350565b6128d681612767565b82525050565b60006020820190506128f160008301846128cd565b92915050565b600061290282612767565b9050919050565b612912816128f7565b811461291d57600080fd5b50565b60008135905061292f81612909565b92915050565b600080600080600080600060c0888a031215612954576129536122f7565b5b60006129628a828b01612790565b97505060206129738a828b016127d0565b96505060406129848a828b016127d0565b95505060606129958a828b01612920565b94505060806129a68a828b01612322565b93505060a088013567ffffffffffffffff8111156129c7576129c66122fc565b5b6129d38a828b016127ef565b925092505092959891949750929550565b60008083601f8401126129fa576129f9612543565b5b8235905067ffffffffffffffff811115612a1757612a166127e5565b5b602083019150836001820283011115612a3357612a326127ea565b5b9250929050565b60008060008060608587031215612a5457612a536122f7565b5b6000612a6287828801612322565b9450506020612a7387828801612322565b935050604085013567ffffffffffffffff811115612a9457612a936122fc565b5b612aa0878288016129e4565b925092505092959194509250565b60008115159050919050565b612ac381612aae565b8114612ace57600080fd5b50565b600081359050612ae081612aba565b92915050565b60008060408385031215612afd57612afc6122f7565b5b6000612b0b85828601612790565b9250506020612b1c85828601612ad1565b9150509250929050565b60008060408385031215612b3d57612b3c6122f7565b5b600083013567ffffffffffffffff811115612b5b57612b5a6122fc565b5b612b678582860161264a565b9250506020612b7885828601612322565b9150509250929050565b600060208284031215612b9857612b976122f7565b5b6000612ba684828501612790565b91505092915050565b612bb881612aae565b82525050565b6000602082019050612bd36000830184612baf565b92915050565b60006020820190508181036000830152612bf38184612425565b905092915050565b600080600060608486031215612c1457612c136122f7565b5b6000612c2286828701612322565b9350506020612c3386828701612322565b9250506040612c4486828701612790565b9150509250925092565b612c57816127a5565b82525050565b6000602082019050612c726000830184612c4e565b92915050565b600081519050919050565b600082825260208201905092915050565b6000819050602082019050919050565b612cad81612301565b82525050565b600082825260208201905092915050565b6000612ccf826123ce565b612cd98185612cb3565b9350612ce98185602086016123ea565b612cf281612414565b840191505092915050565b612d0681612767565b82525050565b600060c083016000830151612d246000860182612ca4565b5060208301518482036020860152612d3c8282612cc4565b91505060408301518482036040860152612d568282612cc4565b9150506060830151612d6b6060860182612ca4565b5060808301518482036080860152612d838282612cc4565b91505060a0830151612d9860a0860182612cfd565b508091505092915050565b6000612daf8383612d0c565b905092915050565b6000602082019050919050565b6000612dcf82612c78565b612dd98185612c83565b935083602082028501612deb85612c94565b8060005b85811015612e275784840389528151612e088582612da3565b9450612e1383612db7565b925060208a01995050600181019050612def565b50829750879550505050505092915050565b600060a082019050612e4e6000830188612377565b8181036020830152612e608187612425565b90508181036040830152612e748186612425565b9050612e836060830185612377565b8181036080830152612e958184612dc4565b90509695505050505050565b7f4e487b7100000000000000000000000000000000000000000000000000000000600052602260045260246000fd5b60006002820490506001821680612ee857607f821691505b602082108103612efb57612efa612ea1565b5b50919050565b60008190508160005260206000209050919050565b60006020601f8301049050919050565b600082821b905092915050565b600060088302612f637fffffffffffffffffffffffffffffffffffffffffffffffffffffffffffffffff82612f26565b612f6d8683612f26565b95508019841693508086168417925050509392505050565b6000819050919050565b6000612faa612fa5612fa084612301565b612f85565b612301565b9050919050565b6000819050919050565b612fc483612f8f565b612fd8612fd082612fb1565b848454612f33565b825550505050565b600090565b612fed612fe0565b612ff8818484612fbb565b505050565b5b8181101561301c57613011600082612fe5565b600181019050612ffe565b5050565b601f8211156130615761303281612f01565b61303b84612f16565b8101602085101561304a578190505b61305e61305685612f16565b830182612ffd565b50505b505050565b600082821c905092915050565b600061308460001984600802613066565b1980831691505092915050565b600061309d8383613073565b9150826002028217905092915050565b6130b6826123ce565b67ffffffffffffffff8111156130cf576130ce61254d565b5b6130d98254612ed0565b6130e4828285613020565b600060209050601f8311600181146131175760008415613105578287015190505b61310f8582613091565b865550613177565b601f19841661312586612f01565b60005b8281101561314d57848901518255600182019150602085019450602081019050613128565b8683101561316a5784890151613166601f891682613073565b8355505b6001600288020188555050505b505050505050565b7f50726f6a65637420646f6573206e6f742065786973742e000000000000000000600082015250565b60006131b56017836123d9565b91506131c08261317f565b602082019050919050565b600060208201905081810360008301526131e4816131a8565b9050919050565b7f4a6f6220646f6573206e6f742065786973742e00000000000000000000000000600082015250565b60006132216013836123d9565b915061322c826131eb565b602082019050919050565b6000602082019050818103600083015261325081613214565b9050919050565b7f4e487b7100000000000000000000000000000000000000000000000000000000600052603260045260246000fd5b600060808201905061329b60008301876128cd565b6132a86020830186612377565b6132b56040830185612377565b81810360608301526132c78184612425565b905095945050505050565b60006040820190506132e760008301856128cd565b6132f46020830184612377565b9392505050565b60008151905061330a81612aba565b92915050565b600060208284031215613326576133256122f7565b5b6000613334848285016132fb565b91505092915050565b600060a08201905081810360008301526133578188612425565b9050818103602083015261336b8187612425565b905061337a6040830186612377565b818103606083015261338c8185612425565b905061339b60808301846128cd565b9695505050505050565b7f4e487b7100000000000000000000000000000000000000000000000000000000600052601160045260246000fd5b60006133df82612301565b91507fffffffffffffffffffffffffffffffffffffffffffffffffffffffffffffffff8203613411576134106133a5565b5b600182019050919050565b600080fd5b600080fd5b600081519050613435816127b9565b92915050565b60008151905061344a81612779565b92915050565b6004811061345d57600080fd5b50565b60008151905061346f81613450565b92915050565b600067ffffffffffffffff8211156134905761348f61254d565b5b602082029050602081019050919050565b600067ffffffffffffffff8211156134bc576134bb61254d565b5b6134c582612414565b9050602081019050919050565b60006134e56134e0846134a1565b6125ad565b90508281526020810184848401111561350157613500612548565b5b61350c8482856123ea565b509392505050565b600082601f83011261352957613528612543565b5b81516135398482602086016134d2565b91505092915050565b600061355561355084613475565b6125ad565b90508083825260208201905060208402830185811115613578576135776127ea565b5b835b818110156135bf57805167ffffffffffffffff81111561359d5761359c612543565b5b8086016135aa8982613514565b8552602085019450505060208101905061357a565b5050509392505050565b600082601f8301126135de576135dd612543565b5b81516135ee848260208601613542565b91505092915050565b6000610140828403121561360e5761360d61341c565b5b6136196101406125ad565b9050600061362984828501613426565b600083015250602061363d84828501613426565b602083015250604061365184828501613426565b604083015250606061366584828501613426565b60608301525060806136798482850161343b565b60808301525060a061368d84828501613426565b60a08301525060c06136a184828501613460565b60c08301525060e06136b5848285016132fb565b60e08301525061010082015167ffffffffffffffff8111156136da576136d9613421565b5b6136e6848285016135c9565b6101008301525061012082015167ffffffffffffffff81111561370c5761370b613421565b5b61371884828501613514565b6101208301525092915050565b60006020828403121561373b5761373a6122f7565b5b600082015167ffffffffffffffff811115613759576137586122fc565b5b613765848285016135f7565b91505092915050565b60008151905061377d8161230b565b92915050565b6000806040838503121561379a576137996122f7565b5b60006137a88582860161376e565b92505060206137b98582860161376e565b9150509250929050565b7f5369676e65722068617320616c72656164792061747465737465640000000000600082015250565b60006137f9601b836123d9565b9150613804826137c3565b602082019050919050565b60006020820190508181036000830152613828816137ec565b9050919050565b600061383b83856123d9565b93506138488385846125f9565b61385183612414565b840190509392505050565b60006060820190506138716000830187612377565b61387e6020830186612377565b818103604083015261389181848661382f565b905095945050505050565b6000602082840312156138b2576138b16122f7565b5b60006138c08482850161376e565b91505092915050565b7f496e73756666696369656e742062616c616e6365000000000000000000000000600082015250565b60006138ff6014836123d9565b915061390a826138c9565b602082019050919050565b6000602082019050818103600083015261392e816138f2565b9050919050565b600060408201905061394a60008301856128cd565b61395760208301846128cd565b9392505050565b7f496e73756666696369656e7420616c6c6f77616e636500000000000000000000600082015250565b60006139946016836123d9565b915061399f8261395e565b602082019050919050565b600060208201905081810360008301526139c381613987565b9050919050565b60006060820190506139df60008301866128cd565b6139ec60208301856128cd565b6139f96040830184612377565b949350505050565b6000604082019050613a166000830185612377565b613a236020830184612377565b939250505056fea2646970667358221220eb2047c50b24417b9d243289ae30710d5b91aaa8e9d7e1b1d273551069d332c864736f6c634300081b0033",
  "linkReferences": {},
  "deployedLinkReferences": {}
}